{
    "_format": "hh-sol-artifact-1",
    "contractName": "Strife",
    "sourceName": "contracts/strife.sol",
    "abi": [
        {
            "anonymous": false,
            "inputs": [
                {
                    "indexed": false,
                    "internalType": "uint256",
                    "name": "amount",
                    "type": "uint256"
                }
            ],
            "name": "Deposit",
            "type": "event"
        },
        {
            "inputs": [
                {
                    "internalType": "address payable",
                    "name": "_to",
                    "type": "address"
                },
                {
                    "internalType": "uint256",
                    "name": "_amount",
                    "type": "uint256"
                }
            ],
            "name": "Withdraw",
            "outputs": [],
            "stateMutability": "payable",
            "type": "function"
        },
        {
            "stateMutability": "payable",
            "type": "receive"
        }
    ],
    "bytecode": "0x608060405234801561001057600080fd5b506101fc806100206000396000f3fe6080604052600436106100225760003560e01c8063884edad91461006557610060565b36610060577f4d6ce1e535dbade1c23defba91e23b8f791ce5edc0cc320257a2b364e4e38426346040516100569190610141565b60405180910390a1005b600080fd5b61007f600480360381019061007a91906100f6565b610081565b005b8173ffffffffffffffffffffffffffffffffffffffff166108fc829081150290604051600060405180830381858888f193505050501580156100c7573d6000803e3d6000fd5b505050565b6000813590506100db81610198565b92915050565b6000813590506100f0816101af565b92915050565b6000806040838503121561010957600080fd5b6000610117858286016100cc565b9250506020610128858286016100e1565b9150509250929050565b61013b8161018e565b82525050565b60006020820190506101566000830184610132565b92915050565b60006101678261016e565b9050919050565b600073ffffffffffffffffffffffffffffffffffffffff82169050919050565b6000819050919050565b6101a18161015c565b81146101ac57600080fd5b50565b6101b88161018e565b81146101c357600080fd5b5056fea2646970667358221220ab3236d32a906f8f387c7890f8952f4a9024b0d67047803ba619db7e49752ff164736f6c63430008030033",
    "linkReferences": {},
    "deployedLinkReferences": {}
}